{
  "_format": "hh-sol-artifact-1",
  "contractName": "DigimonNFTGame",
  "sourceName": "contracts/DigimonNFTGame.sol",
  "abi": [
    {
      "inputs": [
        {
          "internalType": "string[]",
          "name": "characterNames",
          "type": "string[]"
        },
        {
          "internalType": "string[]",
          "name": "characterImageURIs",
          "type": "string[]"
        },
        {
          "internalType": "uint256[]",
          "name": "characterHp",
          "type": "uint256[]"
        },
        {
          "internalType": "uint256[]",
          "name": "characterAtackDmg",
          "type": "uint256[]"
        },
        {
          "internalType": "uint256[]",
          "name": "damageMultiplier",
          "type": "uint256[]"
        },
        {
          "internalType": "uint256[]",
          "name": "evolutionStages",
          "type": "uint256[]"
        },
        {
          "internalType": "string",
          "name": "bossName",
          "type": "string"
        },
        {
          "internalType": "string",
          "name": "bossImageURI",
          "type": "string"
        },
        {
          "internalType": "uint256",
          "name": "bossHP",
          "type": "uint256"
        },
        {
          "internalType": "uint256",
          "name": "bossAttackDamage",
          "type": "uint256"
        }
      ],
      "stateMutability": "nonpayable",
      "type": "constructor"
    },
    {
      "anonymous": false,
      "inputs": [
        {
          "indexed": true,
          "internalType": "address",
          "name": "owner",
          "type": "address"
        },
        {
          "indexed": true,
          "internalType": "address",
          "name": "approved",
          "type": "address"
        },
        {
          "indexed": true,
          "internalType": "uint256",
          "name": "tokenId",
          "type": "uint256"
        }
      ],
      "name": "Approval",
      "type": "event"
    },
    {
      "anonymous": false,
      "inputs": [
        {
          "indexed": true,
          "internalType": "address",
          "name": "owner",
          "type": "address"
        },
        {
          "indexed": true,
          "internalType": "address",
          "name": "operator",
          "type": "address"
        },
        {
          "indexed": false,
          "internalType": "bool",
          "name": "approved",
          "type": "bool"
        }
      ],
      "name": "ApprovalForAll",
      "type": "event"
    },
    {
      "anonymous": false,
      "inputs": [
        {
          "indexed": false,
          "internalType": "uint256",
          "name": "newBossHP",
          "type": "uint256"
        },
        {
          "indexed": false,
          "internalType": "uint256",
          "name": "newPlayerHp",
          "type": "uint256"
        }
      ],
      "name": "AttackComplete",
      "type": "event"
    },
    {
      "anonymous": false,
      "inputs": [
        {
          "indexed": false,
          "internalType": "address",
          "name": "sender",
          "type": "address"
        },
        {
          "indexed": false,
          "internalType": "uint256",
          "name": "tokenId",
          "type": "uint256"
        },
        {
          "indexed": false,
          "internalType": "uint256",
          "name": "characterIndex",
          "type": "uint256"
        }
      ],
      "name": "CharacterNFTMinted",
      "type": "event"
    },
    {
      "anonymous": false,
      "inputs": [
        {
          "indexed": true,
          "internalType": "address",
          "name": "from",
          "type": "address"
        },
        {
          "indexed": true,
          "internalType": "address",
          "name": "to",
          "type": "address"
        },
        {
          "indexed": true,
          "internalType": "uint256",
          "name": "tokenId",
          "type": "uint256"
        }
      ],
      "name": "Transfer",
      "type": "event"
    },
    {
      "inputs": [
        {
          "internalType": "address",
          "name": "to",
          "type": "address"
        },
        {
          "internalType": "uint256",
          "name": "tokenId",
          "type": "uint256"
        }
      ],
      "name": "approve",
      "outputs": [],
      "stateMutability": "nonpayable",
      "type": "function"
    },
    {
      "inputs": [],
      "name": "attackBoss",
      "outputs": [],
      "stateMutability": "nonpayable",
      "type": "function"
    },
    {
      "inputs": [
        {
          "internalType": "address",
          "name": "owner",
          "type": "address"
        }
      ],
      "name": "balanceOf",
      "outputs": [
        {
          "internalType": "uint256",
          "name": "",
          "type": "uint256"
        }
      ],
      "stateMutability": "view",
      "type": "function"
    },
    {
      "inputs": [],
      "name": "bigBoss",
      "outputs": [
        {
          "internalType": "string",
          "name": "name",
          "type": "string"
        },
        {
          "internalType": "string",
          "name": "imageURI",
          "type": "string"
        },
        {
          "internalType": "uint256",
          "name": "hp",
          "type": "uint256"
        },
        {
          "internalType": "uint256",
          "name": "maxHp",
          "type": "uint256"
        },
        {
          "internalType": "uint256",
          "name": "attackDamage",
          "type": "uint256"
        }
      ],
      "stateMutability": "view",
      "type": "function"
    },
    {
      "inputs": [],
      "name": "checkIfUserHasNFT",
      "outputs": [
        {
          "components": [
            {
              "internalType": "uint256",
              "name": "characterIndex",
              "type": "uint256"
            },
            {
              "internalType": "string",
              "name": "name",
              "type": "string"
            },
            {
              "internalType": "string",
              "name": "imageURI",
              "type": "string"
            },
            {
              "internalType": "uint256",
              "name": "hp",
              "type": "uint256"
            },
            {
              "internalType": "uint256",
              "name": "maxHp",
              "type": "uint256"
            },
            {
              "internalType": "uint256",
              "name": "attackDamage",
              "type": "uint256"
            },
            {
              "internalType": "uint256",
              "name": "damageMultiplier",
              "type": "uint256"
            },
            {
              "internalType": "uint256",
              "name": "evolutionStages",
              "type": "uint256"
            },
            {
              "internalType": "uint256",
              "name": "maxEvolutionStages",
              "type": "uint256"
            }
          ],
          "internalType": "struct DigimonNFTGame.CharacterAttributes",
          "name": "",
          "type": "tuple"
        }
      ],
      "stateMutability": "view",
      "type": "function"
    },
    {
      "inputs": [
        {
          "internalType": "uint256",
          "name": "tokenId",
          "type": "uint256"
        }
      ],
      "name": "getApproved",
      "outputs": [
        {
          "internalType": "address",
          "name": "",
          "type": "address"
        }
      ],
      "stateMutability": "view",
      "type": "function"
    },
    {
      "inputs": [],
      "name": "getBigBoss",
      "outputs": [
        {
          "components": [
            {
              "internalType": "string",
              "name": "name",
              "type": "string"
            },
            {
              "internalType": "string",
              "name": "imageURI",
              "type": "string"
            },
            {
              "internalType": "uint256",
              "name": "hp",
              "type": "uint256"
            },
            {
              "internalType": "uint256",
              "name": "maxHp",
              "type": "uint256"
            },
            {
              "internalType": "uint256",
              "name": "attackDamage",
              "type": "uint256"
            }
          ],
          "internalType": "struct DigimonNFTGame.BigBoss",
          "name": "",
          "type": "tuple"
        }
      ],
      "stateMutability": "view",
      "type": "function"
    },
    {
      "inputs": [],
      "name": "getDefaultCharacters",
      "outputs": [
        {
          "components": [
            {
              "internalType": "uint256",
              "name": "characterIndex",
              "type": "uint256"
            },
            {
              "internalType": "string",
              "name": "name",
              "type": "string"
            },
            {
              "internalType": "string",
              "name": "imageURI",
              "type": "string"
            },
            {
              "internalType": "uint256",
              "name": "hp",
              "type": "uint256"
            },
            {
              "internalType": "uint256",
              "name": "maxHp",
              "type": "uint256"
            },
            {
              "internalType": "uint256",
              "name": "attackDamage",
              "type": "uint256"
            },
            {
              "internalType": "uint256",
              "name": "damageMultiplier",
              "type": "uint256"
            },
            {
              "internalType": "uint256",
              "name": "evolutionStages",
              "type": "uint256"
            },
            {
              "internalType": "uint256",
              "name": "maxEvolutionStages",
              "type": "uint256"
            }
          ],
          "internalType": "struct DigimonNFTGame.CharacterAttributes[]",
          "name": "",
          "type": "tuple[]"
        }
      ],
      "stateMutability": "view",
      "type": "function"
    },
    {
      "inputs": [
        {
          "internalType": "address",
          "name": "owner",
          "type": "address"
        },
        {
          "internalType": "address",
          "name": "operator",
          "type": "address"
        }
      ],
      "name": "isApprovedForAll",
      "outputs": [
        {
          "internalType": "bool",
          "name": "",
          "type": "bool"
        }
      ],
      "stateMutability": "view",
      "type": "function"
    },
    {
      "inputs": [
        {
          "internalType": "uint256",
          "name": "_characterIndex",
          "type": "uint256"
        }
      ],
      "name": "mintCharacterNFT",
      "outputs": [],
      "stateMutability": "nonpayable",
      "type": "function"
    },
    {
      "inputs": [],
      "name": "name",
      "outputs": [
        {
          "internalType": "string",
          "name": "",
          "type": "string"
        }
      ],
      "stateMutability": "view",
      "type": "function"
    },
    {
      "inputs": [
        {
          "internalType": "uint256",
          "name": "",
          "type": "uint256"
        }
      ],
      "name": "nftHolderAttributes",
      "outputs": [
        {
          "internalType": "uint256",
          "name": "characterIndex",
          "type": "uint256"
        },
        {
          "internalType": "string",
          "name": "name",
          "type": "string"
        },
        {
          "internalType": "string",
          "name": "imageURI",
          "type": "string"
        },
        {
          "internalType": "uint256",
          "name": "hp",
          "type": "uint256"
        },
        {
          "internalType": "uint256",
          "name": "maxHp",
          "type": "uint256"
        },
        {
          "internalType": "uint256",
          "name": "attackDamage",
          "type": "uint256"
        },
        {
          "internalType": "uint256",
          "name": "damageMultiplier",
          "type": "uint256"
        },
        {
          "internalType": "uint256",
          "name": "evolutionStages",
          "type": "uint256"
        },
        {
          "internalType": "uint256",
          "name": "maxEvolutionStages",
          "type": "uint256"
        }
      ],
      "stateMutability": "view",
      "type": "function"
    },
    {
      "inputs": [
        {
          "internalType": "address",
          "name": "",
          "type": "address"
        }
      ],
      "name": "nftHolders",
      "outputs": [
        {
          "internalType": "uint256",
          "name": "",
          "type": "uint256"
        }
      ],
      "stateMutability": "view",
      "type": "function"
    },
    {
      "inputs": [
        {
          "internalType": "uint256",
          "name": "tokenId",
          "type": "uint256"
        }
      ],
      "name": "ownerOf",
      "outputs": [
        {
          "internalType": "address",
          "name": "",
          "type": "address"
        }
      ],
      "stateMutability": "view",
      "type": "function"
    },
    {
      "inputs": [
        {
          "internalType": "address",
          "name": "from",
          "type": "address"
        },
        {
          "internalType": "address",
          "name": "to",
          "type": "address"
        },
        {
          "internalType": "uint256",
          "name": "tokenId",
          "type": "uint256"
        }
      ],
      "name": "safeTransferFrom",
      "outputs": [],
      "stateMutability": "nonpayable",
      "type": "function"
    },
    {
      "inputs": [
        {
          "internalType": "address",
          "name": "from",
          "type": "address"
        },
        {
          "internalType": "address",
          "name": "to",
          "type": "address"
        },
        {
          "internalType": "uint256",
          "name": "tokenId",
          "type": "uint256"
        },
        {
          "internalType": "bytes",
          "name": "_data",
          "type": "bytes"
        }
      ],
      "name": "safeTransferFrom",
      "outputs": [],
      "stateMutability": "nonpayable",
      "type": "function"
    },
    {
      "inputs": [
        {
          "internalType": "address",
          "name": "operator",
          "type": "address"
        },
        {
          "internalType": "bool",
          "name": "approved",
          "type": "bool"
        }
      ],
      "name": "setApprovalForAll",
      "outputs": [],
      "stateMutability": "nonpayable",
      "type": "function"
    },
    {
      "inputs": [
        {
          "internalType": "bytes4",
          "name": "interfaceId",
          "type": "bytes4"
        }
      ],
      "name": "supportsInterface",
      "outputs": [
        {
          "internalType": "bool",
          "name": "",
          "type": "bool"
        }
      ],
      "stateMutability": "view",
      "type": "function"
    },
    {
      "inputs": [],
      "name": "symbol",
      "outputs": [
        {
          "internalType": "string",
          "name": "",
          "type": "string"
        }
      ],
      "stateMutability": "view",
      "type": "function"
    },
    {
      "inputs": [
        {
          "internalType": "uint256",
          "name": "_tokenId",
          "type": "uint256"
        }
      ],
      "name": "tokenURI",
      "outputs": [
        {
          "internalType": "string",
          "name": "",
          "type": "string"
        }
      ],
      "stateMutability": "view",
      "type": "function"
    },
    {
      "inputs": [
        {
          "internalType": "address",
          "name": "from",
          "type": "address"
        },
        {
          "internalType": "address",
          "name": "to",
          "type": "address"
        },
        {
          "internalType": "uint256",
          "name": "tokenId",
          "type": "uint256"
        }
      ],
      "name": "transferFrom",
      "outputs": [],
      "stateMutability": "nonpayable",
      "type": "function"
    }
  ],
  "bytecode": "0x60806040523480156200001157600080fd5b506040516200610038038062006100833981810160405281019062000037919062000ce0565b6040518060400160405280601081526020017f4469676974616c204d6f6e7374657273000000000000000000000000000000008152506040518060400160405280600781526020017f446967696d6f6e000000000000000000000000000000000000000000000000008152508160009080519060200190620000bb92919062000a48565b508060019080519060200190620000d492919062000a48565b505050620001226040518060400160405280601a81526020017f446967696d6f6e4e465447616d6520636f6e7374727563746f72000000000000815250620008ba60201b62001d831760201c565b6200016d6040518060400160405280600d81526020017f4275696c64696e6720426f737300000000000000000000000000000000000000815250620008ba60201b62001d831760201c565b6040518060a001604052808581526020018481526020018381526020018381526020018281525060076000820151816000019080519060200190620001b492919062000a48565b506020820151816001019080519060200190620001d392919062000a48565b50604082015181600201556060820151816003015560808201518160040155905050620003566040518060600160405280602a8152602001620060d6602a9139600760000180546200022590620010e6565b80601f01602080910402602001604051908101604052809291908181526020018280546200025390620010e6565b8015620002a45780601f106200027857610100808354040283529160200191620002a4565b820191906000526020600020905b8154815290600101906020018083116200028657829003601f168201915b505050505060076002015460076001018054620002c190620010e6565b80601f0160208091040260200160405190810160405280929190818152602001828054620002ef90620010e6565b8015620003405780601f10620003145761010080835404028352916020019162000340565b820191906000526020600020905b8154815290600101906020018083116200032257829003601f168201915b50505050506200095d60201b62001e1c1760201c565b620003a16040518060400160405280601c81526020017f4275696c64696e67205374617274657273204368617261637465727300000000815250620008ba60201b62001d831760201c565b60005b8a518110156200089257600e6040518061012001604052808381526020018d8481518110620003fc577f4e487b7100000000000000000000000000000000000000000000000000000000600052603260045260246000fd5b602002602001015181526020018c848151811062000443577f4e487b7100000000000000000000000000000000000000000000000000000000600052603260045260246000fd5b602002602001015181526020018b84815181106200048a577f4e487b7100000000000000000000000000000000000000000000000000000000600052603260045260246000fd5b602002602001015181526020018b8481518110620004d1577f4e487b7100000000000000000000000000000000000000000000000000000000600052603260045260246000fd5b602002602001015181526020018a848151811062000518577f4e487b7100000000000000000000000000000000000000000000000000000000600052603260045260246000fd5b602002602001015181526020018960018151811062000560577f4e487b7100000000000000000000000000000000000000000000000000000000600052603260045260246000fd5b6020026020010151815260200160018152602001888481518110620005ae577f4e487b7100000000000000000000000000000000000000000000000000000000600052603260045260246000fd5b602002602001015181525090806001815401808255809150506001900390600052602060002090600902016000909190919091506000820151816000015560208201518160010190805190602001906200060a92919062000a48565b5060408201518160020190805190602001906200062992919062000a48565b50606082015181600301556080820151816004015560a0820151816005015560c0820151816006015560e08201518160070155610100820151816008015550506000600e8281548110620006a6577f4e487b7100000000000000000000000000000000000000000000000000000000600052603260045260246000fd5b90600052602060002090600902016040518061012001604052908160008201548152602001600182018054620006dc90620010e6565b80601f01602080910402602001604051908101604052809291908181526020018280546200070a90620010e6565b80156200075b5780601f106200072f576101008083540402835291602001916200075b565b820191906000526020600020905b8154815290600101906020018083116200073d57829003601f168201915b505050505081526020016002820180546200077690620010e6565b80601f0160208091040260200160405190810160405280929190818152602001828054620007a490620010e6565b8015620007f55780601f10620007c957610100808354040283529160200191620007f5565b820191906000526020600020905b815481529060010190602001808311620007d757829003601f168201915b50505050508152602001600382015481526020016004820154815260200160058201548152602001600682015481526020016007820154815260200160088201548152505090506200087a604051806060016040528060218152602001620060b5602191398260200151836060015184604001516200095d60201b62001e1c1760201c565b506001816200088a919062001049565b9050620003a4565b50620008aa600662000a0960201b62001ebe1760201c565b505050505050505050506200120a565b6200095a81604051602401620008d1919062000eea565b6040516020818303038152906040527f41304fac000000000000000000000000000000000000000000000000000000007bffffffffffffffffffffffffffffffffffffffffffffffffffffffff19166020820180517bffffffffffffffffffffffffffffffffffffffffffffffffffffffff838183161783525050505062000a1f60201b60201c565b50565b62000a03848484846040516024016200097a949392919062000f0e565b6040516020818303038152906040527f8d142cdd000000000000000000000000000000000000000000000000000000007bffffffffffffffffffffffffffffffffffffffffffffffffffffffff19166020820180517bffffffffffffffffffffffffffffffffffffffffffffffffffffffff838183161783525050505062000a1f60201b60201c565b50505050565b6001816000016000828254019250508190555050565b60008151905060006a636f6e736f6c652e6c6f679050602083016000808483855afa5050505050565b82805462000a5690620010e6565b90600052602060002090601f01602090048101928262000a7a576000855562000ac6565b82601f1062000a9557805160ff191683800117855562000ac6565b8280016001018555821562000ac6579182015b8281111562000ac557825182559160200191906001019062000aa8565b5b50905062000ad5919062000ad9565b5090565b5b8082111562000af457600081600090555060010162000ada565b5090565b600062000b0f62000b098462000f99565b62000f70565b9050808382526020820190508285602086028201111562000b2f57600080fd5b60005b8581101562000b7e57815167ffffffffffffffff81111562000b5357600080fd5b80860162000b62898262000c9c565b8552602085019450602084019350505060018101905062000b32565b5050509392505050565b600062000b9f62000b998462000fc8565b62000f70565b9050808382526020820190508285602086028201111562000bbf57600080fd5b60005b8581101562000bf3578162000bd8888262000cc9565b84526020840193506020830192505060018101905062000bc2565b5050509392505050565b600062000c1462000c0e8462000ff7565b62000f70565b90508281526020810184848401111562000c2d57600080fd5b62000c3a848285620010b0565b509392505050565b600082601f83011262000c5457600080fd5b815162000c6684826020860162000af8565b91505092915050565b600082601f83011262000c8157600080fd5b815162000c9384826020860162000b88565b91505092915050565b600082601f83011262000cae57600080fd5b815162000cc084826020860162000bfd565b91505092915050565b60008151905062000cda81620011f0565b92915050565b6000806000806000806000806000806101408b8d03121562000d0157600080fd5b60008b015167ffffffffffffffff81111562000d1c57600080fd5b62000d2a8d828e0162000c42565b9a505060208b015167ffffffffffffffff81111562000d4857600080fd5b62000d568d828e0162000c42565b99505060408b015167ffffffffffffffff81111562000d7457600080fd5b62000d828d828e0162000c6f565b98505060608b015167ffffffffffffffff81111562000da057600080fd5b62000dae8d828e0162000c6f565b97505060808b015167ffffffffffffffff81111562000dcc57600080fd5b62000dda8d828e0162000c6f565b96505060a08b015167ffffffffffffffff81111562000df857600080fd5b62000e068d828e0162000c6f565b95505060c08b015167ffffffffffffffff81111562000e2457600080fd5b62000e328d828e0162000c9c565b94505060e08b015167ffffffffffffffff81111562000e5057600080fd5b62000e5e8d828e0162000c9c565b93505061010062000e728d828e0162000cc9565b92505061012062000e868d828e0162000cc9565b9150509295989b9194979a5092959850565b600062000ea5826200102d565b62000eb1818562001038565b935062000ec3818560208601620010b0565b62000ece81620011df565b840191505092915050565b62000ee481620010a6565b82525050565b6000602082019050818103600083015262000f06818462000e98565b905092915050565b6000608082019050818103600083015262000f2a818762000e98565b9050818103602083015262000f40818662000e98565b905062000f51604083018562000ed9565b818103606083015262000f65818462000e98565b905095945050505050565b600062000f7c62000f8f565b905062000f8a82826200111c565b919050565b6000604051905090565b600067ffffffffffffffff82111562000fb75762000fb6620011b0565b5b602082029050602081019050919050565b600067ffffffffffffffff82111562000fe65762000fe5620011b0565b5b602082029050602081019050919050565b600067ffffffffffffffff821115620010155762001014620011b0565b5b6200102082620011df565b9050602081019050919050565b600081519050919050565b600082825260208201905092915050565b60006200105682620010a6565b91506200106383620010a6565b9250827fffffffffffffffffffffffffffffffffffffffffffffffffffffffffffffffff038211156200109b576200109a62001152565b5b828201905092915050565b6000819050919050565b60005b83811015620010d0578082015181840152602081019050620010b3565b83811115620010e0576000848401525b50505050565b60006002820490506001821680620010ff57607f821691505b6020821081141562001116576200111562001181565b5b50919050565b6200112782620011df565b810181811067ffffffffffffffff82111715620011495762001148620011b0565b5b80604052505050565b7f4e487b7100000000000000000000000000000000000000000000000000000000600052601160045260246000fd5b7f4e487b7100000000000000000000000000000000000000000000000000000000600052602260045260246000fd5b7f4e487b7100000000000000000000000000000000000000000000000000000000600052604160045260246000fd5b6000601f19601f8301169050919050565b620011fb81620010a6565b81146200120757600080fd5b50565b614e9b806200121a6000396000f3fe608060405234801561001057600080fd5b50600436106101375760003560e01c80637df124a1116100b8578063b88d4fde1161007c578063b88d4fde1461036e578063c87b56dd1461038a578063c8cf27f4146103ba578063d4f24c5b146103d8578063e985e9c5146103e2578063f8b81ef71461041257610137565b80637df124a1146102aa57806395d89b41146102da57806398da4c95146102f8578063a22cb46514610330578063a9c326791461034c57610137565b806323b872dd116100ff57806323b872dd146101f457806342842e0e146102105780636352211e1461022c57806370a082311461025c57806374bce80a1461028c57610137565b806301ffc9a71461013c5780630665f9611461016c57806306fdde031461018a578063081812fc146101a8578063095ea7b3146101d8575b600080fd5b61015660048036038101906101519190613286565b61042e565b6040516101639190613cf6565b60405180910390f35b610174610510565b604051610181919061408f565b60405180910390f35b61019261066c565b60405161019f9190613d11565b60405180910390f35b6101c260048036038101906101bd91906132d8565b6106fe565b6040516101cf9190613c36565b60405180910390f35b6101f260048036038101906101ed919061324a565b610783565b005b61020e60048036038101906102099190613144565b61089b565b005b61022a60048036038101906102259190613144565b6108fb565b005b610246600480360381019061024191906132d8565b61091b565b6040516102539190613c36565b60405180910390f35b610276600480360381019061027191906130df565b6109cd565b60405161028391906140d3565b60405180910390f35b610294610a85565b6040516102a19190613cd4565b60405180910390f35b6102c460048036038101906102bf91906130df565b610c4f565b6040516102d191906140d3565b60405180910390f35b6102e2610c67565b6040516102ef9190613d11565b60405180910390f35b610312600480360381019061030d91906132d8565b610cf9565b604051610327999897969594939291906140ee565b60405180910390f35b61034a6004803603810190610345919061320e565b610e57565b005b610354610e6d565b604051610365959493929190613de0565b60405180910390f35b61038860048036038101906103839190613193565b610fa1565b005b6103a4600480360381019061039f91906132d8565b611003565b6040516103b19190613d11565b60405180910390f35b6103c2611266565b6040516103cf91906140b1565b60405180910390f35b6103e061145d565b005b6103fc60048036038101906103f79190613108565b6117e8565b6040516104099190613cf6565b60405180910390f35b61042c600480360381019061042791906132d8565b61187c565b005b60007f80ac58cd000000000000000000000000000000000000000000000000000000007bffffffffffffffffffffffffffffffffffffffffffffffffffffffff1916827bffffffffffffffffffffffffffffffffffffffffffffffffffffffff191614806104f957507f5b5e139f000000000000000000000000000000000000000000000000000000007bffffffffffffffffffffffffffffffffffffffffffffffffffffffff1916827bffffffffffffffffffffffffffffffffffffffffffffffffffffffff1916145b80610509575061050882611ed4565b5b9050919050565b610518612ef0565b60076040518060a001604052908160008201805461053590614460565b80601f016020809104026020016040519081016040528092919081815260200182805461056190614460565b80156105ae5780601f10610583576101008083540402835291602001916105ae565b820191906000526020600020905b81548152906001019060200180831161059157829003601f168201915b505050505081526020016001820180546105c790614460565b80601f01602080910402602001604051908101604052809291908181526020018280546105f390614460565b80156106405780601f1061061557610100808354040283529160200191610640565b820191906000526020600020905b81548152906001019060200180831161062357829003601f168201915b505050505081526020016002820154815260200160038201548152602001600482015481525050905090565b60606000805461067b90614460565b80601f01602080910402602001604051908101604052809291908181526020018280546106a790614460565b80156106f45780601f106106c9576101008083540402835291602001916106f4565b820191906000526020600020905b8154815290600101906020018083116106d757829003601f168201915b5050505050905090565b600061070982611f3e565b610748576040517f08c379a000000000000000000000000000000000000000000000000000000000815260040161073f9061400f565b60405180910390fd5b6004600083815260200190815260200160002060009054906101000a900473ffffffffffffffffffffffffffffffffffffffff169050919050565b600061078e8261091b565b90508073ffffffffffffffffffffffffffffffffffffffff168373ffffffffffffffffffffffffffffffffffffffff1614156107ff576040517f08c379a00000000000000000000000000000000000000000000000000000000081526004016107f69061402f565b60405180910390fd5b8073ffffffffffffffffffffffffffffffffffffffff1661081e611faa565b73ffffffffffffffffffffffffffffffffffffffff16148061084d575061084c81610847611faa565b6117e8565b5b61088c576040517f08c379a000000000000000000000000000000000000000000000000000000000815260040161088390613f8f565b60405180910390fd5b6108968383611fb2565b505050565b6108ac6108a6611faa565b8261206b565b6108eb576040517f08c379a00000000000000000000000000000000000000000000000000000000081526004016108e29061404f565b60405180910390fd5b6108f6838383612149565b505050565b61091683838360405180602001604052806000815250610fa1565b505050565b6000806002600084815260200190815260200160002060009054906101000a900473ffffffffffffffffffffffffffffffffffffffff169050600073ffffffffffffffffffffffffffffffffffffffff168173ffffffffffffffffffffffffffffffffffffffff1614156109c4576040517f08c379a00000000000000000000000000000000000000000000000000000000081526004016109bb90613fcf565b60405180910390fd5b80915050919050565b60008073ffffffffffffffffffffffffffffffffffffffff168273ffffffffffffffffffffffffffffffffffffffff161415610a3e576040517f08c379a0000000000000000000000000000000000000000000000000000000008152600401610a3590613faf565b60405180910390fd5b600360008373ffffffffffffffffffffffffffffffffffffffff1673ffffffffffffffffffffffffffffffffffffffff168152602001908152602001600020549050919050565b6060600e805480602002602001604051908101604052809291908181526020016000905b82821015610c4657838290600052602060002090600902016040518061012001604052908160008201548152602001600182018054610ae790614460565b80601f0160208091040260200160405190810160405280929190818152602001828054610b1390614460565b8015610b605780601f10610b3557610100808354040283529160200191610b60565b820191906000526020600020905b815481529060010190602001808311610b4357829003601f168201915b50505050508152602001600282018054610b7990614460565b80601f0160208091040260200160405190810160405280929190818152602001828054610ba590614460565b8015610bf25780601f10610bc757610100808354040283529160200191610bf2565b820191906000526020600020905b815481529060010190602001808311610bd557829003601f168201915b50505050508152602001600382015481526020016004820154815260200160058201548152602001600682015481526020016007820154815260200160088201548152505081526020019060010190610aa9565b50505050905090565b600d6020528060005260406000206000915090505481565b606060018054610c7690614460565b80601f0160208091040260200160405190810160405280929190818152602001828054610ca290614460565b8015610cef5780601f10610cc457610100808354040283529160200191610cef565b820191906000526020600020905b815481529060010190602001808311610cd257829003601f168201915b5050505050905090565b600c602052806000526040600020600091509050806000015490806001018054610d2290614460565b80601f0160208091040260200160405190810160405280929190818152602001828054610d4e90614460565b8015610d9b5780601f10610d7057610100808354040283529160200191610d9b565b820191906000526020600020905b815481529060010190602001808311610d7e57829003601f168201915b505050505090806002018054610db090614460565b80601f0160208091040260200160405190810160405280929190818152602001828054610ddc90614460565b8015610e295780601f10610dfe57610100808354040283529160200191610e29565b820191906000526020600020905b815481529060010190602001808311610e0c57829003601f168201915b5050505050908060030154908060040154908060050154908060060154908060070154908060080154905089565b610e69610e62611faa565b83836123b0565b5050565b6007806000018054610e7e90614460565b80601f0160208091040260200160405190810160405280929190818152602001828054610eaa90614460565b8015610ef75780601f10610ecc57610100808354040283529160200191610ef7565b820191906000526020600020905b815481529060010190602001808311610eda57829003601f168201915b505050505090806001018054610f0c90614460565b80601f0160208091040260200160405190810160405280929190818152602001828054610f3890614460565b8015610f855780601f10610f5a57610100808354040283529160200191610f85565b820191906000526020600020905b815481529060010190602001808311610f6857829003601f168201915b5050505050908060020154908060030154908060040154905085565b610fb2610fac611faa565b8361206b565b610ff1576040517f08c379a0000000000000000000000000000000000000000000000000000000008152600401610fe89061404f565b60405180910390fd5b610ffd8484848461251d565b50505050565b60606000600c6000848152602001908152602001600020604051806101200160405290816000820154815260200160018201805461104090614460565b80601f016020809104026020016040519081016040528092919081815260200182805461106c90614460565b80156110b95780601f1061108e576101008083540402835291602001916110b9565b820191906000526020600020905b81548152906001019060200180831161109c57829003601f168201915b505050505081526020016002820180546110d290614460565b80601f01602080910402602001604051908101604052809291908181526020018280546110fe90614460565b801561114b5780601f106111205761010080835404028352916020019161114b565b820191906000526020600020905b81548152906001019060200180831161112e57829003601f168201915b505050505081526020016003820154815260200160048201548152602001600582015481526020016006820154815260200160078201548152602001600882015481525050905060006111a18260600151612579565b905060006111b28360800151612579565b905060006111c38460e00151612579565b905060006111d5856101000151612579565b905060006111e68660a00151612579565b9050600061123087602001516111fb8b612579565b8960400151898989898960405160200161121c989796959493929190613ad1565b604051602081830303815290604052612726565b90506000816040516020016112459190613c14565b60405160208183030381529060405290508098505050505050505050919050565b61126e612f1f565b6000600d60003373ffffffffffffffffffffffffffffffffffffffff1673ffffffffffffffffffffffffffffffffffffffff168152602001908152602001600020549050600081111561144c57600c600082815260200190815260200160002060405180610120016040529081600082015481526020016001820180546112f490614460565b80601f016020809104026020016040519081016040528092919081815260200182805461132090614460565b801561136d5780601f106113425761010080835404028352916020019161136d565b820191906000526020600020905b81548152906001019060200180831161135057829003601f168201915b5050505050815260200160028201805461138690614460565b80601f01602080910402602001604051908101604052809291908181526020018280546113b290614460565b80156113ff5780601f106113d4576101008083540402835291602001916113ff565b820191906000526020600020905b8154815290600101906020018083116113e257829003601f168201915b50505050508152602001600382015481526020016004820154815260200160058201548152602001600682015481526020016007820154815260200160088201548152505091505061145a565b611454612f1f565b80925050505b90565b6000600d60003373ffffffffffffffffffffffffffffffffffffffff1673ffffffffffffffffffffffffffffffffffffffff1681526020019081526020016000205490506000600c600083815260200190815260200160002090506115706040518060600160405280603c8152602001614e2a603c91398260010180546114e390614460565b80601f016020809104026020016040519081016040528092919081815260200182805461150f90614460565b801561155c5780601f106115315761010080835404028352916020019161155c565b820191906000526020600020905b81548152906001019060200180831161153f57829003601f168201915b5050505050836003015484600501546128c5565b6116486040518060400160405280601b81526020017f426f73732025732068617320257320485020616e642025732041440000000000815250600760000180546115b990614460565b80601f01602080910402602001604051908101604052809291908181526020018280546115e590614460565b80156116325780601f1061160757610100808354040283529160200191611632565b820191906000526020600020905b81548152906001019060200180831161161557829003601f168201915b50505050506007600201546007600401546128c5565b600081600301541161168f576040517f08c379a000000000000000000000000000000000000000000000000000000000815260040161168690613f0f565b60405180910390fd5b6000600760020154116116d7576040517f08c379a00000000000000000000000000000000000000000000000000000000081526004016116ce9061406f565b60405180910390fd5b806005015460076002015410156116f8576000600760020181905550611717565b806005015460076002015461170d9190614376565b6007600201819055505b600760040154816003015410156117375760008160030181905550611755565b600760040154816003015461174c9190614376565b81600301819055505b61177c604051806060016040528060258152602001614d6f60259139600760020154612967565b6117a2604051806060016040528060288152602001614dd4602891398260030154612967565b7f838ab28464562786a6c4ab2311964b82fa60bd9b14aa7e856af1f3f18d41a41460076002015482600301546040516117dc929190614189565b60405180910390a15050565b6000600560008473ffffffffffffffffffffffffffffffffffffffff1673ffffffffffffffffffffffffffffffffffffffff16815260200190815260200160002060008373ffffffffffffffffffffffffffffffffffffffff1673ffffffffffffffffffffffffffffffffffffffff16815260200190815260200160002060009054906101000a900460ff16905092915050565b60006118886006612a03565b90506118943382612a11565b604051806101200160405280838152602001600e84815481106118e0577f4e487b7100000000000000000000000000000000000000000000000000000000600052603260045260246000fd5b906000526020600020906009020160010180546118fc90614460565b80601f016020809104026020016040519081016040528092919081815260200182805461192890614460565b80156119755780601f1061194a57610100808354040283529160200191611975565b820191906000526020600020905b81548152906001019060200180831161195857829003601f168201915b50505050508152602001600e84815481106119b9577f4e487b7100000000000000000000000000000000000000000000000000000000600052603260045260246000fd5b906000526020600020906009020160020180546119d590614460565b80601f0160208091040260200160405190810160405280929190818152602001828054611a0190614460565b8015611a4e5780601f10611a2357610100808354040283529160200191611a4e565b820191906000526020600020905b815481529060010190602001808311611a3157829003601f168201915b50505050508152602001600e8481548110611a92577f4e487b7100000000000000000000000000000000000000000000000000000000600052603260045260246000fd5b9060005260206000209060090201600301548152602001600e8481548110611ae3577f4e487b7100000000000000000000000000000000000000000000000000000000600052603260045260246000fd5b9060005260206000209060090201600401548152602001600e8481548110611b34577f4e487b7100000000000000000000000000000000000000000000000000000000600052603260045260246000fd5b9060005260206000209060090201600501548152602001600e8481548110611b85577f4e487b7100000000000000000000000000000000000000000000000000000000600052603260045260246000fd5b9060005260206000209060090201600601548152602001600e8481548110611bd6577f4e487b7100000000000000000000000000000000000000000000000000000000600052603260045260246000fd5b9060005260206000209060090201600701548152602001600e8481548110611c27577f4e487b7100000000000000000000000000000000000000000000000000000000600052603260045260246000fd5b906000526020600020906009020160080154815250600c6000838152602001908152602001600020600082015181600001556020820151816001019080519060200190611c75929190612f6b565b506040820151816002019080519060200190611c92929190612f6b565b50606082015181600301556080820151816004015560a0820151816005015560c0820151816006015560e082015181600701556101008201518160080155905050611cf66040518060600160405280602e8152602001614dfc602e91398284612a2f565b80600d60003373ffffffffffffffffffffffffffffffffffffffff1673ffffffffffffffffffffffffffffffffffffffff16815260200190815260200160002081905550611d446006611ebe565b7f4bc303fd457a97b4691b9af582ce71868a3d258638c8d4f8c60988a0f0bfb8cd338284604051611d7793929190613c9d565b60405180910390a15050565b611e1981604051602401611d979190613d11565b6040516020818303038152906040527f41304fac000000000000000000000000000000000000000000000000000000007bffffffffffffffffffffffffffffffffffffffffffffffffffffffff19166020820180517bffffffffffffffffffffffffffffffffffffffffffffffffffffffff8381831617835250505050612ace565b50565b611eb884848484604051602401611e369493929190613d33565b6040516020818303038152906040527f8d142cdd000000000000000000000000000000000000000000000000000000007bffffffffffffffffffffffffffffffffffffffffffffffffffffffff19166020820180517bffffffffffffffffffffffffffffffffffffffffffffffffffffffff8381831617835250505050612ace565b50505050565b6001816000016000828254019250508190555050565b60007f01ffc9a7000000000000000000000000000000000000000000000000000000007bffffffffffffffffffffffffffffffffffffffffffffffffffffffff1916827bffffffffffffffffffffffffffffffffffffffffffffffffffffffff1916149050919050565b60008073ffffffffffffffffffffffffffffffffffffffff166002600084815260200190815260200160002060009054906101000a900473ffffffffffffffffffffffffffffffffffffffff1673ffffffffffffffffffffffffffffffffffffffff1614159050919050565b600033905090565b816004600083815260200190815260200160002060006101000a81548173ffffffffffffffffffffffffffffffffffffffff021916908373ffffffffffffffffffffffffffffffffffffffff160217905550808273ffffffffffffffffffffffffffffffffffffffff166120258361091b565b73ffffffffffffffffffffffffffffffffffffffff167f8c5be1e5ebec7d5bd14f71427d1e84f3dd0314c0f7b2291e5b200ac8c7c3b92560405160405180910390a45050565b600061207682611f3e565b6120b5576040517f08c379a00000000000000000000000000000000000000000000000000000000081526004016120ac90613f6f565b60405180910390fd5b60006120c08361091b565b90508073ffffffffffffffffffffffffffffffffffffffff168473ffffffffffffffffffffffffffffffffffffffff16148061212f57508373ffffffffffffffffffffffffffffffffffffffff16612117846106fe565b73ffffffffffffffffffffffffffffffffffffffff16145b80612140575061213f81856117e8565b5b91505092915050565b8273ffffffffffffffffffffffffffffffffffffffff166121698261091b565b73ffffffffffffffffffffffffffffffffffffffff16146121bf576040517f08c379a00000000000000000000000000000000000000000000000000000000081526004016121b690613ecf565b60405180910390fd5b600073ffffffffffffffffffffffffffffffffffffffff168273ffffffffffffffffffffffffffffffffffffffff16141561222f576040517f08c379a000000000000000000000000000000000000000000000000000000000815260040161222690613f2f565b60405180910390fd5b61223a838383612af7565b612245600082611fb2565b6001600360008573ffffffffffffffffffffffffffffffffffffffff1673ffffffffffffffffffffffffffffffffffffffff16815260200190815260200160002060008282546122959190614376565b925050819055506001600360008473ffffffffffffffffffffffffffffffffffffffff1673ffffffffffffffffffffffffffffffffffffffff16815260200190815260200160002060008282546122ec9190614295565b92505081905550816002600083815260200190815260200160002060006101000a81548173ffffffffffffffffffffffffffffffffffffffff021916908373ffffffffffffffffffffffffffffffffffffffff160217905550808273ffffffffffffffffffffffffffffffffffffffff168473ffffffffffffffffffffffffffffffffffffffff167fddf252ad1be2c89b69c2b068fc378daa952ba7f163c4a11628f55a4df523b3ef60405160405180910390a46123ab838383612afc565b505050565b8173ffffffffffffffffffffffffffffffffffffffff168373ffffffffffffffffffffffffffffffffffffffff16141561241f576040517f08c379a000000000000000000000000000000000000000000000000000000000815260040161241690613f4f565b60405180910390fd5b80600560008573ffffffffffffffffffffffffffffffffffffffff1673ffffffffffffffffffffffffffffffffffffffff16815260200190815260200160002060008473ffffffffffffffffffffffffffffffffffffffff1673ffffffffffffffffffffffffffffffffffffffff16815260200190815260200160002060006101000a81548160ff0219169083151502179055508173ffffffffffffffffffffffffffffffffffffffff168373ffffffffffffffffffffffffffffffffffffffff167f17307eab39ab6107e8899845ad3d59bd9653f200f220920489ca2b5937696c31836040516125109190613cf6565b60405180910390a3505050565b612528848484612149565b61253484848484612b01565b612573576040517f08c379a000000000000000000000000000000000000000000000000000000000815260040161256a90613eaf565b60405180910390fd5b50505050565b606060008214156125c1576040518060400160405280600181526020017f30000000000000000000000000000000000000000000000000000000000000008152509050612721565b600082905060005b600082146125f35780806125dc906144c3565b915050600a826125ec91906142eb565b91506125c9565b60008167ffffffffffffffff811115612635577f4e487b7100000000000000000000000000000000000000000000000000000000600052604160045260246000fd5b6040519080825280601f01601f1916602001820160405280156126675781602001600182028036833780820191505090505b5090505b6000851461271a576001826126809190614376565b9150600a8561268f919061450c565b603061269b9190614295565b60f81b8183815181106126d7577f4e487b7100000000000000000000000000000000000000000000000000000000600052603260045260246000fd5b60200101907effffffffffffffffffffffffffffffffffffffffffffffffffffffffffffff1916908160001a905350600a8561271391906142eb565b945061266b565b8093505050505b919050565b6060600082511415612749576040518060200160405280600081525090506128c0565b6000604051806060016040528060408152602001614d9460409139905060006003600285516127789190614295565b61278291906142eb565b600461278e919061431c565b9050600060208261279f9190614295565b67ffffffffffffffff8111156127de577f4e487b7100000000000000000000000000000000000000000000000000000000600052604160045260246000fd5b6040519080825280601f01601f1916602001820160405280156128105781602001600182028036833780820191505090505b509050818152600183018586518101602084015b8183101561287f576003830192508251603f8160121c168501518253600182019150603f81600c1c168501518253600182019150603f8160061c168501518253600182019150603f8116850151825360018201915050612824565b60038951066001811461289957600281146128a9576128b4565b613d3d60f01b60028303526128b4565b603d60f81b60018303525b50505050508093505050505b919050565b612961848484846040516024016128df9493929190613d8d565b6040516020818303038152906040527fd5cf17d0000000000000000000000000000000000000000000000000000000007bffffffffffffffffffffffffffffffffffffffffffffffffffffffff19166020820180517bffffffffffffffffffffffffffffffffffffffffffffffffffffffff8381831617835250505050612ace565b50505050565b6129ff828260405160240161297d929190613e41565b6040516020818303038152906040527f9710a9d0000000000000000000000000000000000000000000000000000000007bffffffffffffffffffffffffffffffffffffffffffffffffffffffff19166020820180517bffffffffffffffffffffffffffffffffffffffffffffffffffffffff8381831617835250505050612ace565b5050565b600081600001549050919050565b612a2b828260405180602001604052806000815250612c98565b5050565b612ac9838383604051602401612a4793929190613e71565b6040516020818303038152906040527f969cdd03000000000000000000000000000000000000000000000000000000007bffffffffffffffffffffffffffffffffffffffffffffffffffffffff19166020820180517bffffffffffffffffffffffffffffffffffffffffffffffffffffffff8381831617835250505050612ace565b505050565b60008151905060006a636f6e736f6c652e6c6f679050602083016000808483855afa5050505050565b505050565b505050565b6000612b228473ffffffffffffffffffffffffffffffffffffffff16612cf3565b15612c8b578373ffffffffffffffffffffffffffffffffffffffff1663150b7a02612b4b611faa565b8786866040518563ffffffff1660e01b8152600401612b6d9493929190613c51565b602060405180830381600087803b158015612b8757600080fd5b505af1925050508015612bb857506040513d601f19601f82011682018060405250810190612bb591906132af565b60015b612c3b573d8060008114612be8576040519150601f19603f3d011682016040523d82523d6000602084013e612bed565b606091505b50600081511415612c33576040517f08c379a0000000000000000000000000000000000000000000000000000000008152600401612c2a90613eaf565b60405180910390fd5b805181602001fd5b63150b7a0260e01b7bffffffffffffffffffffffffffffffffffffffffffffffffffffffff1916817bffffffffffffffffffffffffffffffffffffffffffffffffffffffff191614915050612c90565b600190505b949350505050565b612ca28383612d16565b612caf6000848484612b01565b612cee576040517f08c379a0000000000000000000000000000000000000000000000000000000008152600401612ce590613eaf565b60405180910390fd5b505050565b6000808273ffffffffffffffffffffffffffffffffffffffff163b119050919050565b600073ffffffffffffffffffffffffffffffffffffffff168273ffffffffffffffffffffffffffffffffffffffff161415612d86576040517f08c379a0000000000000000000000000000000000000000000000000000000008152600401612d7d90613fef565b60405180910390fd5b612d8f81611f3e565b15612dcf576040517f08c379a0000000000000000000000000000000000000000000000000000000008152600401612dc690613eef565b60405180910390fd5b612ddb60008383612af7565b6001600360008473ffffffffffffffffffffffffffffffffffffffff1673ffffffffffffffffffffffffffffffffffffffff1681526020019081526020016000206000828254612e2b9190614295565b92505081905550816002600083815260200190815260200160002060006101000a81548173ffffffffffffffffffffffffffffffffffffffff021916908373ffffffffffffffffffffffffffffffffffffffff160217905550808273ffffffffffffffffffffffffffffffffffffffff16600073ffffffffffffffffffffffffffffffffffffffff167fddf252ad1be2c89b69c2b068fc378daa952ba7f163c4a11628f55a4df523b3ef60405160405180910390a4612eec60008383612afc565b5050565b6040518060a0016040528060608152602001606081526020016000815260200160008152602001600081525090565b6040518061012001604052806000815260200160608152602001606081526020016000815260200160008152602001600081526020016000815260200160008152602001600081525090565b828054612f7790614460565b90600052602060002090601f016020900481019282612f995760008555612fe0565b82601f10612fb257805160ff1916838001178555612fe0565b82800160010185558215612fe0579182015b82811115612fdf578251825591602001919060010190612fc4565b5b509050612fed9190612ff1565b5090565b5b8082111561300a576000816000905550600101612ff2565b5090565b600061302161301c846141d7565b6141b2565b90508281526020810184848401111561303957600080fd5b61304484828561441e565b509392505050565b60008135905061305b81614d12565b92915050565b60008135905061307081614d29565b92915050565b60008135905061308581614d40565b92915050565b60008151905061309a81614d40565b92915050565b600082601f8301126130b157600080fd5b81356130c184826020860161300e565b91505092915050565b6000813590506130d981614d57565b92915050565b6000602082840312156130f157600080fd5b60006130ff8482850161304c565b91505092915050565b6000806040838503121561311b57600080fd5b60006131298582860161304c565b925050602061313a8582860161304c565b9150509250929050565b60008060006060848603121561315957600080fd5b60006131678682870161304c565b93505060206131788682870161304c565b9250506040613189868287016130ca565b9150509250925092565b600080600080608085870312156131a957600080fd5b60006131b78782880161304c565b94505060206131c88782880161304c565b93505060406131d9878288016130ca565b925050606085013567ffffffffffffffff8111156131f657600080fd5b613202878288016130a0565b91505092959194509250565b6000806040838503121561322157600080fd5b600061322f8582860161304c565b925050602061324085828601613061565b9150509250929050565b6000806040838503121561325d57600080fd5b600061326b8582860161304c565b925050602061327c858286016130ca565b9150509250929050565b60006020828403121561329857600080fd5b60006132a684828501613076565b91505092915050565b6000602082840312156132c157600080fd5b60006132cf8482850161308b565b91505092915050565b6000602082840312156132ea57600080fd5b60006132f8848285016130ca565b91505092915050565b600061330d838361391b565b905092915050565b61331e816143aa565b82525050565b600061332f82614218565b6133398185614246565b93508360208202850161334b85614208565b8060005b8581101561338757848403895281516133688582613301565b945061337383614239565b925060208a0199505060018101905061334f565b50829750879550505050505092915050565b6133a2816143bc565b82525050565b60006133b382614223565b6133bd8185614257565b93506133cd81856020860161442d565b6133d6816145f9565b840191505092915050565b60006133ec8261422e565b6133f68185614268565b935061340681856020860161442d565b61340f816145f9565b840191505092915050565b60006134258261422e565b61342f8185614279565b935061343f81856020860161442d565b613448816145f9565b840191505092915050565b600061345e8261422e565b613468818561428a565b935061347881856020860161442d565b80840191505092915050565b600061349160028361428a565b915061349c8261460a565b600282019050919050565b60006134b460088361428a565b91506134bf82614633565b600882019050919050565b60006134d760098361428a565b91506134e28261465c565b600982019050919050565b60006134fa60478361428a565b915061350582614685565b604782019050919050565b600061351d603283614279565b9150613528826146fa565b604082019050919050565b600061354060208361428a565b915061354b82614749565b602082019050919050565b6000613563602583614279565b915061356e82614772565b604082019050919050565b6000613586601c83614279565b9150613591826147c1565b602082019050919050565b60006135a9603083614279565b91506135b4826147ea565b604082019050919050565b60006135cc602483614279565b91506135d782614839565b604082019050919050565b60006135ef601983614279565b91506135fa82614888565b602082019050919050565b6000613612602c83614279565b915061361d826148b1565b604082019050919050565b600061363560218361428a565b915061364082614900565b602182019050919050565b600061365860028361428a565b91506136638261494f565b600282019050919050565b600061367b603883614279565b915061368682614978565b604082019050919050565b600061369e602a83614279565b91506136a9826149c7565b604082019050919050565b60006136c1602983614279565b91506136cc82614a16565b604082019050919050565b60006136e460098361428a565b91506136ef82614a65565b600982019050919050565b6000613707600e8361428a565b915061371282614a8e565b600e82019050919050565b600061372a602083614279565b915061373582614ab7565b602082019050919050565b600061374d60018361428a565b915061375882614ae0565b600182019050919050565b6000613770602c83614279565b915061377b82614b09565b604082019050919050565b600061379360018361428a565b915061379e82614b58565b600182019050919050565b60006137b660018361428a565b91506137c182614b81565b600182019050919050565b60006137d960108361428a565b91506137e482614baa565b601082019050919050565b60006137fc601e8361428a565b915061380782614bd3565b601e82019050919050565b600061381f602183614279565b915061382a82614bfc565b604082019050919050565b6000613842601d8361428a565b915061384d82614c4b565b601d82019050919050565b6000613865603183614279565b915061387082614c74565b604082019050919050565b6000613888602883614279565b915061389382614cc3565b604082019050919050565b600060a08301600083015184820360008601526138bb82826133e1565b915050602083015184820360208601526138d582826133e1565b91505060408301516138ea6040860182613ab3565b5060608301516138fd6060860182613ab3565b5060808301516139106080860182613ab3565b508091505092915050565b6000610120830160008301516139346000860182613ab3565b506020830151848203602086015261394c82826133e1565b9150506040830151848203604086015261396682826133e1565b915050606083015161397b6060860182613ab3565b50608083015161398e6080860182613ab3565b5060a08301516139a160a0860182613ab3565b5060c08301516139b460c0860182613ab3565b5060e08301516139c760e0860182613ab3565b506101008301516139dc610100860182613ab3565b508091505092915050565b600061012083016000830151613a006000860182613ab3565b5060208301518482036020860152613a1882826133e1565b91505060408301518482036040860152613a3282826133e1565b9150506060830151613a476060860182613ab3565b506080830151613a5a6080860182613ab3565b5060a0830151613a6d60a0860182613ab3565b5060c0830151613a8060c0860182613ab3565b5060e0830151613a9360e0860182613ab3565b50610100830151613aa8610100860182613ab3565b508091505092915050565b613abc81614414565b82525050565b613acb81614414565b82525050565b6000613adc826134ca565b9150613ae8828b613453565b9150613af3826134a7565b9150613aff828a613453565b9150613b0a826134ed565b9150613b168289613453565b9150613b21826137cc565b9150613b2c82613786565b9150613b37826137a9565b9150613b42826137ef565b9150613b4d826136d7565b9150613b598288613453565b9150613b64826136fa565b9150613b708287613453565b9150613b7b82613484565b9150613b86826137a9565b9150613b9182613628565b9150613b9c826136d7565b9150613ba88286613453565b9150613bb3826136fa565b9150613bbf8285613453565b9150613bca82613484565b9150613bd582613533565b9150613be0826136d7565b9150613bec8284613453565b9150613bf78261364b565b9150613c0282613740565b91508190509998505050505050505050565b6000613c1f82613835565b9150613c2b8284613453565b915081905092915050565b6000602082019050613c4b6000830184613315565b92915050565b6000608082019050613c666000830187613315565b613c736020830186613315565b613c806040830185613ac2565b8181036060830152613c9281846133a8565b905095945050505050565b6000606082019050613cb26000830186613315565b613cbf6020830185613ac2565b613ccc6040830184613ac2565b949350505050565b60006020820190508181036000830152613cee8184613324565b905092915050565b6000602082019050613d0b6000830184613399565b92915050565b60006020820190508181036000830152613d2b818461341a565b905092915050565b60006080820190508181036000830152613d4d818761341a565b90508181036020830152613d61818661341a565b9050613d706040830185613ac2565b8181036060830152613d82818461341a565b905095945050505050565b60006080820190508181036000830152613da7818761341a565b90508181036020830152613dbb818661341a565b9050613dca6040830185613ac2565b613dd76060830184613ac2565b95945050505050565b600060a0820190508181036000830152613dfa818861341a565b90508181036020830152613e0e818761341a565b9050613e1d6040830186613ac2565b613e2a6060830185613ac2565b613e376080830184613ac2565b9695505050505050565b60006040820190508181036000830152613e5b818561341a565b9050613e6a6020830184613ac2565b9392505050565b60006060820190508181036000830152613e8b818661341a565b9050613e9a6020830185613ac2565b613ea76040830184613ac2565b949350505050565b60006020820190508181036000830152613ec881613510565b9050919050565b60006020820190508181036000830152613ee881613556565b9050919050565b60006020820190508181036000830152613f0881613579565b9050919050565b60006020820190508181036000830152613f288161359c565b9050919050565b60006020820190508181036000830152613f48816135bf565b9050919050565b60006020820190508181036000830152613f68816135e2565b9050919050565b60006020820190508181036000830152613f8881613605565b9050919050565b60006020820190508181036000830152613fa88161366e565b9050919050565b60006020820190508181036000830152613fc881613691565b9050919050565b60006020820190508181036000830152613fe8816136b4565b9050919050565b600060208201905081810360008301526140088161371d565b9050919050565b6000602082019050818103600083015261402881613763565b9050919050565b6000602082019050818103600083015261404881613812565b9050919050565b6000602082019050818103600083015261406881613858565b9050919050565b600060208201905081810360008301526140888161387b565b9050919050565b600060208201905081810360008301526140a9818461389e565b905092915050565b600060208201905081810360008301526140cb81846139e7565b905092915050565b60006020820190506140e86000830184613ac2565b92915050565b600061012082019050614104600083018c613ac2565b8181036020830152614116818b61341a565b9050818103604083015261412a818a61341a565b90506141396060830189613ac2565b6141466080830188613ac2565b61415360a0830187613ac2565b61416060c0830186613ac2565b61416d60e0830185613ac2565b61417b610100830184613ac2565b9a9950505050505050505050565b600060408201905061419e6000830185613ac2565b6141ab6020830184613ac2565b9392505050565b60006141bc6141cd565b90506141c88282614492565b919050565b6000604051905090565b600067ffffffffffffffff8211156141f2576141f16145ca565b5b6141fb826145f9565b9050602081019050919050565b6000819050602082019050919050565b600081519050919050565b600081519050919050565b600081519050919050565b6000602082019050919050565b600082825260208201905092915050565b600082825260208201905092915050565b600082825260208201905092915050565b600082825260208201905092915050565b600081905092915050565b60006142a082614414565b91506142ab83614414565b9250827fffffffffffffffffffffffffffffffffffffffffffffffffffffffffffffffff038211156142e0576142df61453d565b5b828201905092915050565b60006142f682614414565b915061430183614414565b9250826143115761431061456c565b5b828204905092915050565b600061432782614414565b915061433283614414565b9250817fffffffffffffffffffffffffffffffffffffffffffffffffffffffffffffffff048311821515161561436b5761436a61453d565b5b828202905092915050565b600061438182614414565b915061438c83614414565b92508282101561439f5761439e61453d565b5b828203905092915050565b60006143b5826143f4565b9050919050565b60008115159050919050565b60007fffffffff0000000000000000000000000000000000000000000000000000000082169050919050565b600073ffffffffffffffffffffffffffffffffffffffff82169050919050565b6000819050919050565b82818337600083830152505050565b60005b8381101561444b578082015181840152602081019050614430565b8381111561445a576000848401525b50505050565b6000600282049050600182168061447857607f821691505b6020821081141561448c5761448b61459b565b5b50919050565b61449b826145f9565b810181811067ffffffffffffffff821117156144ba576144b96145ca565b5b80604052505050565b60006144ce82614414565b91507fffffffffffffffffffffffffffffffffffffffffffffffffffffffffffffffff8214156145015761450061453d565b5b600182019050919050565b600061451782614414565b915061452283614414565b9250826145325761453161456c565b5b828206905092915050565b7f4e487b7100000000000000000000000000000000000000000000000000000000600052601160045260246000fd5b7f4e487b7100000000000000000000000000000000000000000000000000000000600052601260045260246000fd5b7f4e487b7100000000000000000000000000000000000000000000000000000000600052602260045260246000fd5b7f4e487b7100000000000000000000000000000000000000000000000000000000600052604160045260246000fd5b6000601f19601f8301169050919050565b7f7d2c000000000000000000000000000000000000000000000000000000000000600082015250565b7f2d2d4e465420233a000000000000000000000000000000000000000000000000600082015250565b7f7b226e616d65223a220000000000000000000000000000000000000000000000600082015250565b7f222c226465736372697074696f6e223a2022544849532049532041204449474960008201527f54414c204d4f4e53544552204e46542047414d45222c22696d616765223a202260208201527f697066733a2f2f00000000000000000000000000000000000000000000000000604082015250565b7f4552433732313a207472616e7366657220746f206e6f6e20455243373231526560008201527f63656976657220696d706c656d656e7465720000000000000000000000000000602082015250565b7f7b202274726169745f74797065223a202241747461636b2044616d616765222c600082015250565b7f4552433732313a207472616e736665722066726f6d20696e636f72726563742060008201527f6f776e6572000000000000000000000000000000000000000000000000000000602082015250565b7f4552433732313a20746f6b656e20616c7265616479206d696e74656400000000600082015250565b7f4552524f523a20434841524143544552204d555354204841564520485020544f60008201527f2041545441434b2054484520424f535300000000000000000000000000000000602082015250565b7f4552433732313a207472616e7366657220746f20746865207a65726f2061646460008201527f7265737300000000000000000000000000000000000000000000000000000000602082015250565b7f4552433732313a20617070726f766520746f2063616c6c657200000000000000600082015250565b7f4552433732313a206f70657261746f7220717565727920666f72206e6f6e657860008201527f697374656e7420746f6b656e0000000000000000000000000000000000000000602082015250565b7f2274726169745f74797065223a202245766f6c7574696f6e205374616765732260008201527f2c00000000000000000000000000000000000000000000000000000000000000602082015250565b7f7d5d000000000000000000000000000000000000000000000000000000000000600082015250565b7f4552433732313a20617070726f76652063616c6c6572206973206e6f74206f7760008201527f6e6572206e6f7220617070726f76656420666f7220616c6c0000000000000000602082015250565b7f4552433732313a2062616c616e636520717565727920666f7220746865207a6560008201527f726f206164647265737300000000000000000000000000000000000000000000602082015250565b7f4552433732313a206f776e657220717565727920666f72206e6f6e657869737460008201527f656e7420746f6b656e0000000000000000000000000000000000000000000000602082015250565b7f2276616c7565223a200000000000000000000000000000000000000000000000600082015250565b7f2c226d61785f76616c7565223a20000000000000000000000000000000000000600082015250565b7f4552433732313a206d696e7420746f20746865207a65726f2061646472657373600082015250565b7f7d00000000000000000000000000000000000000000000000000000000000000600082015250565b7f4552433732313a20617070726f76656420717565727920666f72206e6f6e657860008201527f697374656e7420746f6b656e0000000000000000000000000000000000000000602082015250565b7f5b00000000000000000000000000000000000000000000000000000000000000600082015250565b7f7b00000000000000000000000000000000000000000000000000000000000000600082015250565b7f222c2261747472696275746573223a2000000000000000000000000000000000600082015250565b7f2274726169745f74797065223a20224865616c746820506f696e7473222c0000600082015250565b7f4552433732313a20617070726f76616c20746f2063757272656e74206f776e6560008201527f7200000000000000000000000000000000000000000000000000000000000000602082015250565b7f646174613a6170706c69636174696f6e2f6a736f6e3b6261736536342c000000600082015250565b7f4552433732313a207472616e736665722063616c6c6572206973206e6f74206f60008201527f776e6572206e6f7220617070726f766564000000000000000000000000000000602082015250565b7f4552524f522054484520424f5353204d555354204841564520485020544f204260008201527f452041545441434b000000000000000000000000000000000000000000000000602082015250565b614d1b816143aa565b8114614d2657600080fd5b50565b614d32816143bc565b8114614d3d57600080fd5b50565b614d49816143c8565b8114614d5457600080fd5b50565b614d6081614414565b8114614d6b57600080fd5b5056fe506c617965722061747461636b656420626f73732e204e657720626f73732068703a2025734142434445464748494a4b4c4d4e4f505152535455565758595a6162636465666768696a6b6c6d6e6f707172737475767778797a303132333435363738392b2f426f73732061747461636b656420706c617965722e204e657720706c617965722068703a2025730a4d696e746564204e465420772f20746f6b656e496420257320616e6420636861726163746572496e6465782025730a506c6179657220772f206368617261637465722025732061626f757420746f2061747461636b2e2048617320257320485020616e64202573204144a2646970667358221220d895e7882a15f921715010224e09e233abadb0f7ae79dac3f89ea15a0a0c606364736f6c63430008040033446f6e65206372656174696e6720257320772f2048522025732c20696d67202573446f6e6520696e697469616c697a696e6720626f737320257320772f2048502025732c20696d67202573",
  "linkReferences": {},
  "deployedLinkReferences": {}
}